:020000040800F2
:100000003035012031030008A5160008A7160008A6
:10001000AB160008AF160008B31600080000000079
:10002000000000000000000000000000690200085D
:10003000B716000800000000BD020008E53A0008FD
:100040004B0300084B0300084B0300084B03000858
:100050004B0300084B0300084B0300084B03000848
:100060004B0300084B0300084B0300084B03000838
:100070004B0300084B0300084B0300084B03000828
:100080004B0300084B0300084B0300084B03000818
:100090004B0300084B0300084B0300084B03000808
:1000A0004B0300084B0300084B0300084B030008F8
:1000B0004B070008D70700084B0300084B03000854
:1000C0004B0300084B0300084B0300084B030008D8
:1000D0004B0300084B0300084B0300084B030008C8
:1000E0004B0300084B0300084B0300084B030008B8
:1000F0004B0300084B0300084B0300084B030008A8
:100100004B0300084B0300084B0300084B03000897
:100110004B0300084B0300084B0300084B03000887
:100120004B0300084B0300084B0300084B03000877
:100130004B0300084B0300084B0300084B03000867
:100140004B0300084B0300084B0300084B03000857
:100150004B0300084B0300084B0300084B03000847
:100160004B0300084B0300084B0300084B03000837
:100170004B0300084B0300084B0300084B03000827
:100180004B0300084B03000800F002F800F05CF895
:100190000AA090E8000C82448344AAF10107DA45E2
:1001A00001D100F051F8AFF2090EBAE80F0013F0D8
:1001B000010F18BFFB1A43F001031847EC69000058
:1001C0000C6A00000A444FF0000C10F8013B13F0D9
:1001D000070408BF10F8014B1D1108BF10F8015BA0
:1001E000641E05D010F8016B641E01F8016BF9D193
:1001F00013F0080F1EBF10F8014BAD1C0C1B09D1EA
:100200006D1E58BF01F801CBFAD505E014F8016B5B
:1002100001F8016B6D1EF9D59142D6D370470000ED
:100220000023002400250026103A28BF78C1FBD8FF
:10023000520728BF30C148BF0B6070471FB506F09A
:1002400088FC1FBD10B510BD06F067F81146FFF71A
:10025000F5FF01F082F806F085F803B4FFF7F2FF2E
:1002600003BC06F08DF80000294B19680868B0E857
:10027000F04F80F30988BFF36F8F4FF0000080F3D9
:10028000118870470000000006480068006880F38D
:10029000088862B661B6BFF34F8FBFF36F8F00DF80
:1002A00000BF00BF08ED00E0DFF80C00016841F47A
:1002B00070010160704700BF88ED00E0EFF3098036
:1002C000BFF36F8F124B1A681EF0100F08BF20ED9E
:1002D000108A20E9F04F106008B44FF0500080F30E
:1002E000118802F050FC4FF0000080F3118808BC28
:1002F00019680868B0E8F04F1EF0100F08BFB0ECA6
:10030000108A80F30988BFF36F8F704700BF00BF6A
:10031000B0000020EFF311804FF0500181F31188FD
:10032000704780F311887047EFF305807047000035
:100330000948804709480047FEE7FEE7FEE7FEE779
:10034000FEE7FEE7FEE7FEE7FEE7FEE704480549B5
:10035000054A064B704700004D040008890100085B
:10036000302F012030350120303101203031012083
:100370000CB50020019000907648006840F4803071
:100380007449086000BF7348006800F400300090B2
:100390000198401C0190009818B90198B0F5A04F41
:1003A000F1D16C48006800F4003010B101200090D9
:1003B00001E0002000900098012846D165484030B7
:1003C000006840F08050634940310860624800682E
:1003D00040F44040604908605E48083000685D496C
:1003E000083108600846006840F40040086008468C
:1003F000006840F4A05008605848091F0860081FB2
:10040000006840F08070091F086000BF5148006814
:1004100000F000700028F9D040F2057050490860E3
:100420004C480830006820F003004A490831086051
:100430000846006840F00200086000BF45480830E8
:10044000006800F00C000828F8D10CBD10B5454834
:10045000006840F47000434908603E48006840F07E
:1004600001003C49086000203A49083108603948D9
:1004700000683D490840374908603C48091D08604C
:10048000081F006820F48020091F086000203149FF
:100490000C310860FFF76CFF4FF000603149803984
:1004A000086010BD70B50020002202230024022144
:1004B000284D08352D6805F00C0020B1042806D021
:1004C000082834D107E02A4D2A4E356033E02A4D02
:1004D000284E35602FE01F4D2D1D2D68C5F380542B
:1004E0001C4D2D1D2D6805F03F0154B1224DB5FB6B
:1004F000F1F5184E361D3668C6F3881605FB06F270
:1005000009E01B4DB5FBF1F5124E361D3668C6F3FA
:10051000881605FB06F20F4D2D1D2D68C5F301450C
:100520006D1C6B00B2FBF3F5124E356003E0104D0D
:10053000104E356000BF00BF064D08352D68C5F36D
:1005400003150E4E705D0B4D2D68C540094E35608C
:1005500070BD0000003802400070004008544007A1
:10056000003C024088ED00E0FFFFF6FE1030002462
:100570000024F4000000002000127A000400002093
:1005800010B50121082004F0CFF94FF47040F8496C
:1005900008600120087100208871C871032048712B
:1005A000F44803F0F7FC10BD10B50121084604F033
:1005B000BBF90020EE490871887101200860022013
:1005C000C87103204871EC4803F0E4FC10BD10B57D
:1005D0000121084604F0F1F9E820E84908800020EC
:1005E000488040F6B73048600020088188724FF09C
:1005F000804004F0F8FD0121880704F07DFE01220F
:100600001146900705F090FA10BD10B501210220A7
:1006100004F0D3F940F63300D84908800020488020
:1006200042F20F704860002008818872D44804F0BC
:10063000DAFD0121D24804F05FFE01221146D048C4
:1006400005F072FA10BD08B51C208DF800000020DE
:100650008DF8010001208DF802008DF80300684636
:1006600003F01FFB08BD08B51D208DF80000002019
:100670008DF8010001208DF802008DF80300684616
:1006800003F00FFB08BD002280F84020002107E0A6
:100690009FEDBC0A00EB810282ED000A4A1CD1B238
:1006A0000829F5DBB0EE080A80ED080AB0EE080A6A
:1006B00080ED090AB0EE080A80ED0A0AB0EE080AD9
:1006C00080ED0B0AB0EE080A80ED0C0AB0EE080AC5
:1006D00080ED0D0AB0EE080A80ED0E0AB0EE080AB1
:1006E00080ED0F0A704710B5FFF7B0FE012108201A
:1006F00004F01AF94FF40040A34908600120087182
:1007000000208871022048719A4803F043FC0121BF
:10071000042004F009F900F0CFFF01F010F90121E5
:100720009A4804F07CFB9A48FFF7ADFF10BD10B566
:10073000044621468F4803F0A9FC10BD10B50446BD
:1007400021468C4803F0A4FC10BD10B50121880798
:1007500005F001FA00283DD00121880705F00CFAC8
:100760008C480068401C8B4908608B480068401C1E
:10077000894908608948007858B986480068F02897
:1007800007D3012086490870002082490860854906
:10079000086084480068401C824908600846006878
:1007A000B0F5167F05D903207F49087000207D49E8
:1007B00008607E48007820B17D480068401C7C4974
:1007C00008607B480068782804DD002078490860CC
:1007D0007649087010BD10B50121694805F0BBF9D4
:1007E000A0B10121664805F0C7F9724800680028E9
:1007F0000CDD714801885F4803F053FC6D480068C8
:10080000401E6C49086000206649086010BD6448BD
:10081000007880B96148007868B95E4890ED000AB8
:10082000B8EE400AF1EE080AB4EEE00AF1EE10FA72
:1008300001DB012070470020FCE76048006820B918
:100840005F4800685F49086010E05C480068012864
:1008500004D15B4800685C49086007E057480068BD
:10086000022803D15648006858490860704700B50F
:10087000494890ED000AB8EE400ADFED550AB4EEA3
:10088000E00AF1EE10FA01D8012000E00020514901
:1008900008705148007858B10846007840B9484877
:1008A0000068401C4649086000204B4908701AE067
:1008B0004A48007818B100204849087013E03848C9
:1008C000007880B1002038490870354908704249E5
:1008D00008704249087001203049087038480068A3
:1008E00008B1FFF7AAFF00BD3448006820B1012815
:1008F00007D002280FD109E04FF400502E4908809C
:1009000009E04FF480402C49088004E04FF4004097
:100910002949088000BF00BF2848006828B9294835
:10092000006840002349086012E02448006801285C
:1009300005D12548006840001E49086008E01F48AE
:100940000068022804D12148006840001949086065
:10095000704710B5104890ED000AB8EE400ADFED80
:100960001C0AB4EEE00AF1EE10FA39D8012038E0A2
:1009700034000020000C0240000002402C01002046
:10098000000400400000000018000020003C00406F
:100990003801002040000020440000204C000020CE
:1009A0005100002048000020520000207B00002061
:1009B0007C0000205C000020580000206400002023
:1009C00074000020680000206C00002070000020EF
:1009D000000070424D0000204F0000205000002019
:1009E0000020F8490870F848007880B1084600787F
:1009F00068B9F6480068401C032190FBF1F201FB46
:100A00001200F24908600020EF49087025E0F04824
:100A1000007878B10020EF490860ED490870FFF7D1
:100A200063FF00BFEC4800680028FBD10120EB49C0
:100A3000087012E0EA48007878B10220E7490870AF
:100A40000020E7490870E0490870E149087001207A
:100A5000E44908700003FFF771FE10BD00BFE248D3
:100A60000568E248046858E027E0DC48007804287C
:100A70000AD10003FFF762FE4FF40040FFF757FE74
:100A80004FF40050FFF75AFE4FF47A70D8490860CF
:100A90000120D8490870002000F00FFD4FF47A7053
:100AA00001F0BEFF002000F010FD4FF47A7001F05D
:100AB000B7FF0020D04908606D1E002DD5DC27E06F
:100AC000C648007804280AD10003FFF737FE4FF428
:100AD0000040FFF72CFE4FF40050FFF72FFE40F2CE
:100AE000DC50C34908600120C2490870002000F0B2
:100AF000E4FC4FF47A7001F093FF002000F0E5FC75
:100B00004FF47A7001F08CFF0020BB490860641E2E
:100B1000002CD5DC002001F0A1FDA5E700BFB24804
:100B200004682DE027E0AD48007804280AD10003CE
:100B3000FFF7FDFD4FF40040FFF700FE4FF40050BB
:100B4000FFF7FCFD4FF47A70A94908600120A9491C
:100B50000870002000F0B1FC4FF47A7001F060FFE3
:100B6000002000F0B2FC4FF47A7001F059FF002031
:100B7000A1490860641E002CD5DC002001F06EFD48
:100B8000D0E700BF984805689C48046858E027E013
:100B90009248007804280AD10003FFF7CFFD4FF4F4
:100BA0000040FFF7CBFD4FF40050FFF7C0FD4FF4BE
:100BB0007A708F49086001208E490870002000F08B
:100BC0007CFC4FF47A7001F02BFF002000F07DFCDC
:100BD0004FF47A7001F024FF0020874908606D1EF1
:100BE000002DD5DC27E07D48007804280AD10003D9
:100BF000FFF7A4FD4FF40040FFF7A0FD4FF40050B5
:100C0000FFF795FD40F634007949086001207949E5
:100C10000870002000F051FC4FF47A7001F000FFE2
:100C2000002000F052FC4FF47A7001F0F9FE002031
:100C300071490860641E002CD5DC002001F00EFD17
:100C4000A5E700B587B06E4890ED000AB8EE400AFF
:100C50005FEDA10AB4EEE00AF1EE10FA01D801202E
:100C600000E00020574908705748007880B10846D6
:100C7000007868B963480068401C032190FBF1F2DA
:100C800001FB12005F49086000204F4908706BE0CB
:100C90004F480078002858D0002004900590069016
:100CA00058480068B0B9504800680490534800683C
:100CB00006904FF4005054490880002000900190A5
:100CC000029004AB802251A10390AFF2491001F0D1
:100CD00020FC31E04B480068012813D142480068ED
:100CE00004904FF480404849088000200090019013
:100CF000029004AB802245A10390AFF2DF1001F017
:100D000008FC19E03F480068022815D13648006801
:100D100004903648006805904FF400403A49088036
:100D2000002000900190029004AB802237A1039034
:100D3000AFF2D72001F0EDFB0020254908702249D1
:100D400008700420254908700EE02548007858B145
:100D5000002022490870224908701B4908701C496C
:100D6000087001201F49087007B000BD16480078C0
:100D700030B10220194908700020134908700EE0B4
:100D80001748007858B100201449087014490870B9
:100D90000F4908700C49087001201249087070470B
:100DA0000948007830B102200C490870002006493B
:100DB000087039E00A48007818B100200849087026
:100DC00032E02BE04D0000204F00002064000020A6
:100DD00050000020740000205C0000205200002021
:100DE000510000204C0000206C0000206800002012
:100DF00084000020820000204800002070000020B5
:100E000044000020600000207800002044697370D6
:100E1000656E736520436F6666656500FE48007801
:100E200010B10020FC490870704710B5FB480078ED
:100E3000052813D2DFE800F0090C06030F00FFF7C6
:100E400095FF0BE0FFF7FDFE08E0FFF782FD05E0F0
:100E5000FFF70DFD02E0FFF7A3FF00BF00BF10BDCD
:100E600010B5EF48006820B94FF40050ED490880F4
:100E70000EE0EB480068012803D18003E9490880AF
:100E800006E0E7480068022802D18003E5490880AF
:100E90004FF48050FFF74BFCE348007820B1E14865
:100EA0000088FFF744FC03E0DE480088FFF746FCBB
:100EB00010BD10B5DA48006860B94FF40040FFF784
:100EC0003DFC4FF48040FFF739FC4FF40050FFF732
:100ED0002EFC1EE0D248006801280BD14003FFF72A
:100EE0002DFC4FF40040FFF729FC4FF48040FFF742
:100EF0001EFC0EE0CA48006802280AD14003FFF732
:100F00001DFC4FF40050FFF719FC4FF40040FFF7B1
:100F10000EFC4FF48050FFF70AFC10BD10B54FF4E3
:100F20008050FFF70BFCC148006860B94FF40040E7
:100F3000FFF704FC4FF48040FFF700FC4FF4005033
:100F4000FFF7F5FB1EE0B948006801280BD140030C
:100F5000FFF7F4FB4FF40040FFF7F0FB4FF4804045
:100F6000FFF7E5FB0EE0B148006802280AD1400314
:100F7000FFF7E4FB4FF40050FFF7E0FB4FF40040B5
:100F8000FFF7D5FB10BD10B54FF48040FFF7CFFB46
:100F90004FF40050FFF7CBFB4FF40040FFF7C7FBC7
:100FA0004FF48050FFF7CAFB10BD704710B59B4847
:100FB0000078052813D2DFE800F0090C06030F00C3
:100FC000FFF7E1FF0BE0FFF7A9FF08E0FFF771FF74
:100FD00005E0FFF745FF00BFFFF7E7FF00BF00BFD9
:100FE00010BD03E0FFF721FFFFF7E0FFFAE70DE098
:100FF0008F48007838B18F4800688F49086000201A
:101000008B49087002E00A2001F00AFDF0E710B5F4
:10101000FFF71CFA0121082003F086FC4FF4004082
:1010200086490860012008710020887102204871FB
:10103000834802F0AFFF0121042003F075FC00F0AB
:101040003BFB00F07CFC01217E4803F0E8FE7E487B
:10105000FFF719FB10BDF0EE400A9FED7C1AB0EED1
:10106000410A90F8401000EB8103C3ED000A002212
:1010700014E000F1200303EB8203D3ED001A8B1878
:1010800003F0070300EB830393ED002AB0EE401A50
:1010900001EE821AB0EE410A531C9AB2082AE8DB2C
:1010A0004B1C99B201F0070180F8401070472DEDFC
:1010B000048B76E00221634803F05DFF00285AD0DC
:1010C0006348008881B25F4803F01EFF61480068F2
:1010D00000F00100E0B39FED600B53EC102B604873
:1010E00090ED000B51EC100B05F084F95C4A03C243
:1010F0009FED5C0B53EC102B594890ED000B51EC1D
:10110000100B05F095FB0CD29FED580B53EC102BF8
:10111000534890ED000B51EC100B05F0BFFB504A0B
:1011200003C24F4890ED000B51EC100B05F030F965
:1011300008EE100AB0EE480A4348FFF78CFF4D480E
:1011400080ED000A006805F093FC41EC190B00E00B
:101150000CE09FED490B53EC102B05F06BFA41ECC2
:10116000180B05F0FBF900B23949088039480068CE
:10117000401C384908604248007840B14148007836
:1011800078B901203F490870FFF741FF09E01021BD
:101190002B4802F07DFF00203A4908700A2001F038
:1011A0003FFC87E7044635E00121374802F054FF51
:1011B000054626465DB11C48007810B10020334931
:1011C00008600020184908703149086021E0FFF7E5
:1011D0001EFBA8B12F48007830B90F48007818B925
:1011E00001202C4908700BE02A48007840B10A48D9
:1011F000007828B9002027490870012006490870A6
:101200000948007810B900202349086001200649E8
:10121000087000BFC8E70000500000205200002006
:1012200064000020580000204C00002060000020D6
:1012300082000020840000203408004018000020B4
:10124000000C0240003C004038010020000000007B
:1012500024000020200000207B14AE47E17A843F68
:1012600028000020000000000000F03F0000000007
:10127000000000403000002000000000000014408A
:101280007B00002081000020000002404000002080
:10129000480000204F0000204400002000B585B029
:1012A0006020ADF800000120ADF80200002002909F
:1012B000ADF80C0069465D4804F02AF808215B4847
:1012C00004F0B3F96946594804F05BF8082157481F
:1012D00004F0B4F90121554803F0F0FF05B000BD5A
:1012E0000EB50121042003F068FB44F61F60019055
:1012F0005320ADF800000020ADF80800ADF8020062
:101300008DF80A006946494803F06DFF01214748FE
:1013100003F0F2FF0EBD1CB50121022003F004FB17
:10132000C020009002208DF8040003208DF80500F5
:1013300000208DF8060001208DF8070069463C4822
:1013400002F028FE02220621394802F0AEFE0222F7
:101350000721374802F0A9FE1CBD1FB54FF44070AD
:1013600002F09AFC012000F089F8002000F086F8D5
:10137000032000F083F8022000F080F800210846E6
:1013800000F0B8F8FFF710F9FFF721F9FFF73DF982
:10139000FFF759F9FFF767F9FFF739FE2548FFF71F
:1013A00072F9032024490870002024490870244958
:1013B0000860FFF7B0FFFFF793FFFFF76FFF002014
:1013C000009001900290034680221EA10390AFF28C
:1013D0002B2001F09EF800200123CDE9003002907F
:1013E000034680221AA10390AFF23D3001F091F83C
:1013F00000200123CDE9003002900346802217A18E
:101400000390AFF2154001F084F8002000900190A5
:1014100002900346802214A10390AFF2394001F0FC
:1014200078F801F02AFD002004B010BD000800404B
:101430000004024038010020520000207B00002000
:101440007C000020427574746F6E205461736B00D1
:10145000536F756E64205461736B00005365727630
:101460006F205461736B00006D61696E2070726F44
:101470006A656374205461736B0000001CB50446F8
:10148000724951F82400012103F04EFA704830F8F7
:101490001400009001208DF8040000208DF8060053
:1014A00001208DF8070002208DF80500694951F8E8
:1014B0002400694602F06EFD1CBD654931F810102C
:1014C000644A52F8202011837047614931F81010A6
:1014D000604A52F82020518370475E4951F820102D
:1014E00049695B4A32F8102051405A4A52F820208C
:1014F0005161704730B585B004460D46564951F8E4
:101500002400012103F010FA0121880303F066FA98
:1015100000208DF810008DF81300504830F81400AA
:1015200003904F4951F8240003A902F033FD012D27
:1015300024D14C4A115D4C4A105D03F06EFD4B48BE
:1015400030F81400019000208DF8080008208DF874
:10155000090001208DF80A0001A802F01BFC444894
:10156000005D8DF800000F208DF801008DF802005D
:1015700001208DF80300684602F093FB05B030BDF2
:1015800010B50446354A32F81410354A52F8240092
:1015900002F062FD10BD7CB504460D46354951F898
:1015A0002410354A52F8242041EA0200012103F0B8
:1015B000BBF92CB9314951F82400012103F0FDF9A0
:1015C0002F4B13F814202F4B33F814102E4B53F8D5
:1015D000240002F06AFD2D4B13F814202C4B33F835
:1015E00014102C4B53F8240002F05FFD00208DF8FE
:1015F000060001208DF8070002208DF8040026481F
:1016000030F81400009002208DF805001E4951F8B2
:101610002400694602F0BEFC02208DF804001F4839
:1016200030F8140000901B4951F82400694602F07C
:10163000B1FC1B4951F82400294604F0E0FB18498D
:1016400051F82400012104F062FC7CBD706B00089D
:10165000686B00088C000020846B0008806B000819
:101660009C0000208B6B00088A6B0008886B0008C8
:101670008C6B0008946B0008986B0008906B000856
:10168000A46B0008A06B0008A8000020A66B00084F
:10169000A26B0008AC0000209C6B00089E6B000849
:1016A000A4000020704700BFFEE700BFFEE700BFB8
:1016B000FEE700BFFEE770471CB5684602F0B2FCCB
:1016C0001020009001208DF8040002208DF8070002
:1016D00000208DF8060002208DF8050001210B2066
:1016E00003F022F96946EC4802F054FC02208DF820
:1016F000040001208DF806004FF4107000900020C7
:101700008DF8070002208DF805006946E34802F0D5
:1017100041FC04220621E14802F0C7FC0422092111
:10172000DE4802F0C2FC01214FF4021003F045F93B
:10173000012002F0CAFF00208DF806004FF4A450EB
:1017400000906946D64802F025FC102000906946BA
:10175000D44802F01FFC06220421D24802F0A5FC66
:1017600006220721CE4802F0A0FC06220A21CC481E
:1017700002F09BFC06220C21C94802F096FC1021C5
:10178000C54802F085FCC84803F00EFA4BF68030DD
:10179000C64988604FF40070C880002088804FF4EC
:1017A00000700880002048808881BF4803F066FAF6
:1017B0000121BD4803F033FBBD4802F0AFFCBD483A
:1017C000BD49086000208880332008814FF4806084
:1017D0004881000188814BF6FF70C8800121B44820
:1017E00002F041FDB449B24802F0C1FC1CBD70B525
:1017F00005460E46002400BF4FF40031AC4802F00D
:101800006FFE0028F8D10121A94802F04FFD00BF6A
:10181000AA49A74802F064FE0028F9D000229421CA
:10182000A34802F05BFD00BFA549A14802F036FEC7
:101830000028F9D00DE0295D9D4802F0D3FD601C21
:10184000C4B200BF9E49891E994802F027FE0028B5
:10185000F8D0B442EFDB00BF9849C91C944802F0AD
:101860003FFE0028F8D00121914802F02BFD70BD09
:1018700070B50446002500BF4FF400318C4802F0DB
:101880002FFE0028F8D10121894802F00FFD00BF8A
:101890008A49874802F024FE0028F9D000229421CA
:1018A000834802F01BFD00BF8549814802F0F6FD28
:1018B0000028F9D021467E4802F094FD00BF8049FF
:1018C000891E7B4802F0EAFD0028F8D00121784803
:1018D00002F0F8FC00BF4FF40031754802F000FE42
:1018E0000028F8D10021724802F000FD0121704863
:1018F00002F0DCFC00BF71496D4802F0F1FD0028E8
:10190000F9D0012294216A4802F0E8FC00BF6D4939
:10191000674802F0C3FD0028F9D000BF69493E3195
:10192000634802F0BBFD0028F8D0614802F05CFD7E
:10193000054601215E4802F0C5FC284670BD7CB515
:10194000FF241021544802F0A1FB5F4D00E06D1E02
:10195000002DFCD10D208DF8000001208DF8010034
:1019600002216846FFF743FF00208DF80000992010
:101970008DF8010002216846FFF739FF47208DF8F6
:10198000000080208DF8010002216846FFF72FFF3C
:101990003220FFF76DFF044632208DF8000044F03E
:1019A00080008DF8010002216846FFF720FF3220F9
:1019B000FFF75EFF044632208DF8000024F080001F
:1019C0008DF8010002216846FFF711FF00208DF815
:1019D00000008DF8010002216846FFF708FF04208F
:1019E0008DF80000AF208DF8010002216846FFF756
:1019F000FEFE0D208DF8000070208DF80100022100
:101A00006846FFF7F4FE05208DF8000081208DF870
:101A1000010002216846FFF7EAFE06208DF800006B
:101A200007208DF8010002216846FFF7E0FE0A203A
:101A30008DF8000000208DF8010002216846FFF7B4
:101A4000D6FE27208DF8000000208DF8010002212D
:101A50006846FFF7CCFE9A208DF800000A208DF82A
:101A600001008DF8020003216846FFF7C0FE1F2029
:101A70008DF800000F208DF8010002216846FFF765
:101A8000B6FE02208DF800009E208DF80100022194
:101A90006846FFF7ACFE7CBD000C0240000402402B
:101AA0000008024000000240003C00407C01002091
:101AB00000540040A08601008C01002001000010AD
:101AC000820007000200030040420F0000F10801FD
:101AD00041604FF0FF31816000F10801C160016198
:101AE00000210160704700210161704742684A602F
:101AF00093688B60936859609160086103685B1C10
:101B00000360704710B502460B685C1C0CB9106985
:101B100007E002F1080000E04068446824689C4245
:101B2000FAD944684C604C68A160886041600A61E1
:101B30001468641C146010BD01460A69D1E90130C3
:101B40009860D1E9010358605068884201D18868E3
:101B50005060002008611068401E106010687047D7
:101B600070B505460E462C461CB9FEF7D3FB00BFE8
:101B7000FEE701F084FFD4E90F12206801FB0200A8
:101B800060600020A0632068A060E06B401E226CB3
:101B9000216800FB0210E0604FF0FF306064A06439
:101BA00076B9206908B9012000E0002080B904F16D
:101BB000100001F007FB01280AD101F056FF07E0F1
:101BC00004F11000FFF782FF04F12400FFF77EFF0D
:101BD00001F074FF012070BD2DE9F04705460E4667
:101BE00017464FF00009DDB1542001F0D6FF04463E
:101BF000B4B105FB06F000F10108404601F0CDFF4D
:101C00002060206848B1E563266401212046FFF783
:101C1000A7FF84F85070A14602E0204602F00FF8BA
:101C2000B9F1000F03D1FEF775FB00BFFEE7484690
:101C3000BDE8F08710B5044601F021FF11E0606AAD
:101C400008B9012000E0002038B904F1240001F0B7
:101C5000B9FA18B101F072FB00E005E0A06C401E7B
:101C6000A064A06C0028EADC00BF4FF0FF30A06445
:101C700001F024FF01F003FF11E0206908B9012001
:101C800000E0002050B904F1100001F09BFA08B107
:101C900001F054FB606C401E606400E002E0606C88
:101CA0000028EADC00BF4FF0FF30606401F006FF5F
:101CB00010BD70B5054601F0E2FEA86BE96B8842E5
:101CC00001D1012400E0002401F0F8FE204670BD9F
:101CD0002DE9F04104460E4615460027206C40B918
:101CE000206878BB606801F099FB074600206060BF
:101CF00028E07DB93146226CA06804F043FA216CDB
:101D0000A0680844A060D4E9011088421AD3206872
:101D1000A06017E03146226CE06804F033FA216CD1
:101D2000E068401AE0602168E068884203D2216CD4
:101D30006068401AE060022D04D1A06B10B1A06B66
:101D4000401EA063A06B401CA0633846BDE8F08134
:101D50002DE9FF4383B0064688461D464FF0000933
:101D600034461CB9FEF7D6FA00BFFEE7B8F1000F03
:101D700001D1206C08B9012000E0002018B9FEF75D
:101D8000C9FA00BFFEE7022D02D1E06B012801D1A4
:101D9000012000E0002018B9FEF7BCFA00BFFEE702
:101DA00001F0DEFA08B9059808B9012000E000202A
:101DB00018B9FEF7AFFA00BFFEE700BF01F05FFE03
:101DC000A06BE16B884201D3022D1DD12A4641460A
:101DD0002046FFF77DFF0746606A08B9012000E052
:101DE000002040B904F1240001F0ECF9012805D1EC
:101DF00001F03BFE02E00FB101F037FE01F05EFEA4
:101E0000012007B0BDE8F083059818B901F056FE2F
:101E10000020F6E7B9F1000F04D101A801F04AFA59
:101E20004FF0010901F04AFE00F09CFD01F027FE91
:101E3000606C401C08B900206064A06C401C08B9AC
:101E40000020A06401F03AFE05A901A801F040FAC3
:101E5000C0B92046FFF72DFF70B104F110000599BD
:101E600001F0F7F82046FFF7E5FE00F0CFFC002870
:101E7000A4D101F0FAFDA1E72046FFF7DBFE00F058
:101E8000C5FC9BE72046FFF7D5FE00F0BFFC002015
:101E9000B7E770B50546542001F07FFE0446E4B173
:101EA000002060602060A060E060A0630120E0632B
:101EB00000202064401E6064A06484F8505004F147
:101EC0001000FFF703FE04F12400FFF7FFFD0023DD
:101ED0001A4619462046FFF73BFF1CB9FEF71AFACF
:101EE00000BFFEE7204670BD70B5064634461CB9FB
:101EF000FEF710FA00BFFEE701F02FFA6168884292
:101F00000CD1E068401EE060E06828B900231A4662
:101F100019462046FFF71CFF012500E00025284652
:101F200070BD70B5054601F0AAFDA86B08B9012483
:101F300000E0002401F0C2FD204670BD70B50446EB
:101F40000D46206C70B1216CE0680844E060616867
:101F5000E068884201D32068E0602846226CE1688E
:101F600004F010F970BD2DE9FF4383B005460E461D
:101F70001F464FF000092C461CB9FEF7CBF900BFF5
:101F8000FEE70EB9206C08B9012000E0002018B966
:101F9000FEF7C0F900BFFEE701F0E2F908B90598C5
:101FA00008B9012000E0002018B9FEF7B3F900BF1E
:101FB000FEE700BF01F063FDA06B90B3D4F80C8086
:101FC00031462046FFF7BAFFB7B9A06B401EA063A9
:101FD000206810B901F072FA6060206908B9012028
:101FE00000E00020B8B904F1100001F0EBF801287E
:101FF00011D101F03AFD0EE0C4F80C80606A08B916
:10200000012000E0002030B904F1240001F0DAF8EA
:1020100008B101F02AFD01F051FD012007B0BDE833
:10202000F083FFE7059818B901F048FD0020F5E7B7
:10203000B9F1000F04D101A801F03CF94FF00109FA
:1020400001F03CFD00F08EFC01F019FD606C401CBD
:1020500008B900206064A06C401C08B90020A0648E
:1020600001F02CFD05A901A801F032F908BB2046BA
:10207000FFF757FFB8B1206830B901F000FD606884
:1020800001F07AF901F01AFD04F12400059900F03D
:10209000E0FF2046FFF7CEFD00F0B8FB002889D115
:1020A00001F0E3FC86E72046FFF7C4FD00F0AEFB3D
:1020B00080E72046FFF7BEFD00F0A8FB0020ADE75B
:1020C0002DE9F04106460F4634461CB9FEF722F9C9
:1020D00000BFFEE701F041F96168884204D1E06881
:1020E000401CE06001250BE000233A4619462046DB
:1020F000FFF739FF0546012D02D1E068401CE06082
:102100002846BDE8F08170B505460E460DB10120A8
:1021100000E0002018B9FEF7FDF800BFFEE7AE4270
:1021200001D8012000E0002018B9FEF7F3F800BF45
:10213000FEE7022200212846FFF74EFD044604B1C7
:10214000A6631CB9FEF7E6F800BFFEE7204670BDA7
:102150002DE9F0470746894615461E463C461CB900
:10216000FEF7D8F800BFFEE7B9F1000F01D1206CEF
:1021700008B9012000E0002018B9FEF7CBF800BF35
:10218000FEE7022E02D1E06B012801D1012000E020
:10219000002018B9FEF7BEF800BFFEE701F0B1FC61
:1021A000FEF7B8F88246A06BE16B884201D3022E9D
:1021B00020D1324649462046FFF78AFD10B10DB1C5
:1021C00001202860A06C401C70B9606A08B9012029
:1021D00000E0002058B904F1240000F0F3FF30B112
:1021E0002DB10120286002E0A06C401CA0644FF0DB
:1021F000010801E04FF000085046FEF792F8404613
:10220000BDE8F0872DE9F0470546884616462C467E
:102210001CB9FEF77FF800BFFEE7B8F1000F01D14F
:10222000206C08B9012000E0002018B9FEF772F810
:1022300000BFFEE701F065FCFEF76CF88146A06B7D
:10224000E8B141462046FFF779FEA06B401EA0632F
:10225000606C401C70B9206908B9012000E00020C2
:1022600058B904F1100000F0ADFF30B12EB10120DB
:10227000306002E0606C401C6064012700E00027D1
:102280004846FEF74EF83846BDE8F0872DE9F0479E
:1022900005460F462C461CB9FEF73CF800BFFEE78A
:1022A0000FB9206C08B9012000E0002018B9FEF732
:1022B00031F800BFFEE701F024FCFEF72BF8814661
:1022C000A06B48B1D4F80C8039462046FFF736FEA3
:1022D000C4F80C80012600E000264846FEF721F8ED
:1022E0003046BDE8F08770B504461CB9FEF712F819
:1022F00000BFFEE701F0C3FBA56B01F0DFFB284642
:1023000070BD70B5044625461DB9FEF703F800BF41
:10231000FEE701F0B4FBD5E90E10461A01F0CEFB42
:10232000304670BD70B504461CB9FDF7F3FF00BF21
:10233000FEE7A56B284670BD014600200BE03D4A34
:1023400002EBC00252688A4204D10022394B43F8A2
:10235000302002E0401C0828F1D300BF704770B560
:1023600005462C461CB9FDF7D5FF00BFFEE7204609
:10237000FFF7E2FF206810B1206801F060FC204602
:1023800001F05DFC70BD0146C86C7047C1647047C8
:10239000014691F85000704770B505461DB9FDF72C
:1023A000B9FF00BFFEE7A86B08B9012400E00024D4
:1023B000204670BD70B504461CB9FDF7ABFF00BFE9
:1023C000FEE7A06BE16B884201D1012500E000250A
:1023D000284670BD024600200BE0164B53F8303003
:1023E00033B9144B43F8301003EBC0035A6002E0DA
:1023F000401C0828F1D300BF704770B505460E4653
:102400002C4601F03CFB606C401C08B90020606465
:10241000A06C401C08B90020A06401F04FFBA06B29
:1024200020B9314604F1240000F0A6FE2046FFF753
:1024300001FC70BD9C01002010B5002407E004EBF6
:102440008401F74A02EB8100FFF740FB641C052C76
:10245000F5D3F448FFF73AFBF348FFF737FBF348AF
:10246000FFF734FBF248FFF731FBF248FFF72EFB92
:10247000EC48F1490860EC48F049086010BD2DE9CE
:10248000F04704460F4615469946DDF820800026A1
:1024900007E0B95D04F134008155B85D00B902E090
:1024A000761C0A2EF5D300BF00213D200155052DD5
:1024B00000D30425E562A5640020E064201DFFF739
:1024C00012FB04F11800FFF70EFB2461C5F10500B3
:1024D000A0616462BDE8F08770B505460E465020E5
:1024E00001F05BFB044694B11EB9A80001F055FB56
:1024F00000E030462063206B20B9204601F09FFBAE
:10250000002404E0A900A522206B03F080FE2046F1
:1025100070BD2DE9FF4F81B0804616469A46DDE931
:102520000E5BB8F1000F03D1FDF7F4FE00BFFEE72C
:10253000052D01D2012000E0002018B9FDF7EAFEC8
:1025400000BFFEE730461099FFF7C6FF0446002C97
:102550005DD0701E216B01EB800929F0070909F09D
:10256000070008B9012000E0002018B9FDF7D2FEED
:1025700000BFFEE700962A462046119B0299FFF70E
:102580007EFF52464146484601F0F4F92060BBF117
:10259000000F01D0CBF8004001F071FAA8480068A4
:1025A000401CA7490860A748006840B9A5480460D6
:1025B0000846006801280CD1FFF73EFF09E0A24859
:1025C000006830B99F480068C06AA84201D89D4899
:1025D00004609E480068401C9C49086008460068EA
:1025E000206494F82C100120884099490968084318
:1025F00097490860E16A01EB8101894A02EB810099
:10260000211DFFF773FA012701F058FA01E04FF09E
:10261000FF37012F09D18C48006830B18948006824
:10262000C06AA84201D201F020FA384605B0BDE8E0
:10263000F08F81490968096809B9012100E000218A
:1026400021B14FF0FF31834A116006E07A490968F1
:10265000C968C8687F4A41681160704770B505460F
:1026600001F00DFA15B97748006800E028460446E5
:10267000201DFFF761FA78B9E06A00EB8000684935
:1026800051F8200040B994F82C100120884070497E
:10269000096881436E480160A06A18B104F118000E
:1026A000FFF74AFA211D6248FFF720FA6A480068DE
:1026B000401C6949086065480068401C634908601F
:1026C00001F0FCF960480068B8B15E4800688442D7
:1026D0000DD16248006808B9012000E0002018B957
:1026E000FDF718FE00BFFEE701F0BFF905E001F0BD
:1026F000C6F9FFF79EFF01F0E1F970BD2DE9F04149
:102700004FF0000855480068002872D1544800680E
:10271000401C5349086008460668DEB94648006810
:10272000006808B9012000E0002018B9FDF7F2FDAB
:1027300000BFFEE740480768404800683E4908601F
:102740003E48076047480068401C46490860FFF75C
:1027500070FF00BF3F48006886423CD300BF364848
:102760000068006808B9012000E0002020B14FF0A7
:10277000FF30384908602DE02F480068C068C46801
:102780006568AE4202D23348056023E0201DFFF7A2
:10279000D3F9A06A18B104F11800FFF7CDF994F845
:1027A0002C10012088402A490968084328490860FC
:1027B000E16A01EB81011A4A02EB8100211DFFF75A
:1027C00095F92049E06A0968C96A8842C7D34FF081
:1027D0000108C4E700BF1B480068C06A00EB800026
:1027E0000F4951F82000012808D94FF0010805E0F1
:1027F000FFE71D480068401C1B4908601B48006833
:1028000008B14FF001084046BDE8F08170B50025E1
:102810001248006818B9FDF77DFD00BFFEE727E00C
:10282000DC01002040020020540200206802002049
:102830007C02002090020020B4000020B80000209C
:10284000C0000020B0000020CC000020DC000020F0
:10285000C8000020E0000020BC000020E4000020B0
:10286000C4000020D8000020D0000020D4000020A8
:1028700001F005F9F9480068401EF849086008466B
:10288000006800284BD1F6480068002847D024E0B3
:10289000F448C068C46804F11800FFF74DF9201D22
:1028A000FFF74AF994F82C1001208840EE49096896
:1028B0000843ED490860E16A01EB8101EB4A02EB54
:1028C0008100211DFFF712F9E949E06A0968C96A28
:1028D000884202D30120E7490860E248006808B94D
:1028E000012000E000200028D2D0E348006878B141
:1028F0000AE0FFF703FF10B10120DE490860DE485F
:102900000068401EDC490860DB4800680028F0D100
:10291000D8480068012802D1012501F0A6F801F08D
:10292000CDF8284670BD10B50446D1480068446013
:10293000D2480068844207D2CD480168091DD048BA
:102940000068FFF7DFF80CE0C9480168091DCD48B1
:102950000068FFF7D7F8CC480068844201D2CA4823
:10296000046010BDBD480068401CBC490860704749
:102970002DE9F04704460E464FF000091CB9FDF75B
:10298000C9FC00BFFEE70EB1012000E0002018B92D
:10299000FDF7C0FC00BFFEE7B048006808B90120A1
:1029A00000E0002018B9FDF7B5FC00BFFEE7FFF717
:1029B000D9FFB248D0F800802068851920684045CA
:1029C00007D92068A8420BD9454509D94FF001091C
:1029D00006E02068A84201D8454501D94FF0010919
:1029E0002560B9F1000F13D0A1480068001DFFF762
:1029F000A3F850B99E48006890F82C100120884038
:102A0000994909688143984801602846FFF78BFF80
:102A1000FFF7FCFE07460FB901F027F8BDE8F08785
:102A200070B50446002634B38C48006808B901200C
:102A300000E0002018B9FDF76DFC00BFFEE7FFF7CE
:102A400091FF8E480068051989480068001DFFF74E
:102A500073F850B98648006890F82C10012088401F
:102A6000814909688143804801602846FFF75BFF80
:102A7000FFF7CCFE06460EB900F0F7FF70BD70B54B
:102A8000044600F0FCFF14B97948006800E02046D5
:102A90000646F56A01F012F8284670BD2DE9F047A8
:102AA00080460D464FF00009052D01D2012000E0BF
:102AB000002018B9FDF72EFC00BFFEE7052D00D35E
:102AC000042500F0DCFFB8F1000F02D1684800686F
:102AD00000E040460446A66CAE4250D0B5420BD949
:102AE0006348006884420DD061480068C06AA8420B
:102AF00008D84FF0010905E05D480068844201D123
:102B00004FF00109E76AE16AA06C884200D1E562F2
:102B1000A564A06900F0004010B9C5F10500A061EE
:102B200007EB8701514A02EB81016069884201D1BC
:102B3000012000E00020E0B1201DFEF7FDFF30B9CC
:102B40000120B8404849096881434748016094F82A
:102B50002C10012088404449096808434249086014
:102B6000E16A01EB8101414A02EB8100211DFEF780
:102B7000BDFFB9F1010F01D100F077FF00BF00F0F8
:102B80009DFFBDE8F08710B53448006818B10120FA
:102B9000384908602BE00020364908603248006858
:102BA000B0FA80F0C0F11F0404EB84002F4951F803
:102BB000200008B1012000E0002018B9FDF7AAFBB1
:102BC00000BFFEE704EB8401284A02EB8100416864
:102BD0004968416000F1080142688A4202D14168B7
:102BE000496841604168C968214A116000BF10BD51
:102BF00070B5054600F043FF15B91D48006800E0B8
:102C000028460446201DFEF797FF78B9E06A00EBDE
:102C10008000164951F8200040B994F82C1001208A
:102C200088401149096881430F480160A06A18B1C2
:102C300004F11800FEF780FF211D1448FEF756FF2F
:102C400000F03CFF0A480068844239D1104800680F
:102C500048B302480068E8B901201CE0E400002005
:102C6000C000002068020020C8000020DC01002015
:102C7000B0000020D4000020D0000020C4000020BC
:102C8000B8000020B4000020E000002090020020E6
:102C9000CC000020002018B9FDF73CFB00BFFEE788
:102CA00000F0E3FE15E0FE480068FE49096888422E
:102CB00003D10020FC4908600BE0FFF764FF08E047
:102CC000FA48006828B100F0DAFEFFF7B2FC00F025
:102CD000F5FE70BD70B5054600262C461DB9FDF702
:102CE00019FB00BFFEE7EE496069884201D101206F
:102CF00000E0002070B1EE49A06A884201D10120B5
:102D000000E0002030B9A06A08B9012000E00020EE
:102D100000B10126304670BD70B505462C461DB980
:102D2000FDF7F8FA00BFFEE74CB3DF4800688442C5
:102D300025D000F0A4FE2046FFF7CCFF01281CD1CF
:102D4000201DFEF7F9FE94F82C1001208840D94987
:102D500009680843D7490860E16A01EB8101D64A56
:102D600002EB8100211DFEF7C1FECF49E06A096830
:102D7000C96A884201D300F078FE00F09FFE70BD62
:102D80002DE9F041054600262C461DB9FDF7C2FA93
:102D900000BFFEE700F0B5FEFDF7BCFA074620468F
:102DA000FFF798FF012824D1C4480068E0B9BE4964
:102DB000E06A0968C96A884200D30126201DFEF72F
:102DC000BBFE94F82C1001208840BA4909680843DA
:102DD000B8490860E16A01EB8101B74A02EB810062
:102DE000211DFEF783FE04E004F11801B048FEF750
:102DF0007DFE3846FDF795FA3046BDE8F08110B506
:102E00000446206B00F01BFF204600F018FF10BDA9
:102E100070B523E0FFF7A6FDA948006808B90120B6
:102E200000E000200546FFF7F1FCBDB900F027FEE9
:102E3000A348C068C468201DFEF77EFE994800685C
:102E4000401E984908609F480068401E9D490860E0
:102E500000F034FE2046FFF7D2FF00BF994800681B
:102E60000028D7D170BD00BFFFF7D2FF924800689D
:102E70000128F9D900F0F9FDF6E71FB50020009010
:102E800001900290034682228FA103909048FFF7A1
:102E900040FB0446012C02D100F0E7FC0446012C63
:102EA0000AD1FDF737FA01208049086000208949DE
:102EB000086000F07DFD04E01CB9FDF72BFA00BFAF
:102EC000FEE71FBD10B5FDF725FA00207749086021
:102ED00000F0BCFD10BD10B500F0D1FD7D480468C8
:102EE00000F0ECFD204610BD70B500F00AFEFDF7C5
:102EF00011FA0546774804682846FDF712FA20467D
:102F000070BD6848006870470246002101E0521C0D
:102F1000491C1078A528FAD0890888B270472DE995
:102F2000F04706460C4690460025206800284BD006
:102F3000204641684968416000F1080142688A42C0
:102F400002D14168496841604168D1F80C9000BFE6
:102F5000204641684968416000F1080142688A42A0
:102F600002D14168496841604168CF6806EB45106D
:102F7000076007F1340006EB45114860386C06EB3A
:102F80004511886006EB451080F80C80F86A06EB66
:102F900045110861B8F1030F05D1B86A18B10220D4
:102FA00006EB45110873B86C06EB4511486100202B
:102FB00006EB45118861386BFFF7A6FF06EB45115C
:102FC00088836D1C4F45C3D12846BDE8F0872DE9A5
:102FD000F04105468846164600240527FFF7C2FC47
:102FE0003048006880452FD300BF7F1E07EB870263
:102FF000314B03EB820105EB44100122FFF78FFFF9
:103000000444002FF1D105EB441002223249096833
:10301000FFF785FF044405EB441002222F4909689D
:10302000FFF77DFF044405EB441004222449FFF719
:1030300076FF044405EB441003221949FFF76FFFA4
:1030400004440EB100203060FFF7E0FB2046BDE8ED
:10305000F08170B505460C461DB9FDF75BF900BF60
:10306000FEE71148016818312846FEF74BFD0E486F
:103070000068001DFEF760FD50B90B48006890F82D
:103080002C10012088400B490968814309480160E0
:10309000601C20B904480168091D014820E022E0B5
:1030A00090020020C0000020B0000020CC000020D2
:1030B00068020020C8000020DC010020E40000209D
:1030C0007C020020BC00002049444C450000000068
:1030D000672E0008C4000020B4000020B8000020C3
:1030E000FEF704FD05E0FC48006806193046FFF7CE
:1030F0001AFC70BD2DE9F04105460E4614461DB977
:10310000FDF708F900BFFEE7F448006808B10120A8
:1031100000E0002018B9FDF7FDF800BFFEE746F01B
:103120000040EF4909688861ED4801681831284678
:10313000FEF7DCFCEA480068001DFEF7FDFC50B914
:10314000E748006890F82C1001208840E54909689C
:103150008143E4480160601C30B9E1480168091D01
:10316000E148FEF7C3FC05E0DB4800680719384674
:10317000FFF7D9FBBDE8F08170B504460D461CB9D8
:10318000FDF7C8F800BFFEE7D548016818312046B2
:10319000FEF7ACFCD2480068001DFEF7CDFC50B92C
:1031A000CF48006890F82C1001208840CD4909686C
:1031B0008143CC480160C848006846193046FFF793
:1031C000B2FB70BD70B50646F068C4681CB9FDF767
:1031D000A1F800BFFEE704F11800FEF7ADFCBF4800
:1031E0000068A8B9201DFEF7A7FC94F82C10012058
:1031F0008840BC4909680843BA490860E16A01EBA4
:103200008101BA4A02EB8100211DFEF76FFC04E048
:1032100004F11801B648FEF769FCB149E06A096893
:10322000C96A884204D901250120B249086000E03A
:103230000025284670BD2DE9F04105460F46A748F8
:10324000006808B1012000E0002018B9FDF762F81D
:1032500000BFFEE747F000402860EC681CB9FDF7AE
:1032600059F800BFFEE72846FEF766FC201DFEF772
:1032700063FC94F82C10012088409A49096808439F
:1032800098490860E16A01EB8101984A02EB8100EC
:10329000211DFEF72BFC9249E06A0968C96A884241
:1032A00004D9012601209349086000E00026304639
:1032B000BDE8F08110B504461CB9FDF72BF800BF3E
:1032C000FEE78D480068206083480068606010BD9C
:1032D0002DE9F04104460D461CB9FDF71BF800BF6F
:1032E000FEE71DB9FDF716F800BFFEE700F0C7FBCB
:1032F000794807682868401C08B9002619E07E490B
:1033000020680968884204D06068B84201D8012664
:103310000FE06068381A2968884209D22868616815
:10332000791A401A28602046FFF7C4FF002600E003
:10333000012600F0C3FB3046BDE8F08101206D4955
:1033400008607047014611B10A46506C00E0002049
:10335000704708B102465164704761490868704778
:103360006649096809B9012005E05C49096809B99D
:10337000022000E00020704770B505462C46002D65
:103380004BD05749E06A0968C96A884245D2A069AA
:1033900000F0004028B952480068C06AC0F105003A
:1033A000A061E16A01EB8101504A02EB8101606991
:1033B000884201D1012000E0002050B3201DFEF71B
:1033C000BBFB78B9E06A00EB8000484951F8200067
:1033D00040B994F82C100120884042490968814383
:1033E000404801603E480068C06AE06294F82C10D2
:1033F000012088403B49096808433A490860E16A6E
:1034000001EB8101394A02EB8100211DFEF76EFBC1
:1034100003E033480068C06AE06270BD70B50546DD
:103420002C460026002D3BD0E06C18B9FCF772FF4B
:1034300000BFFEE7E06C401EE064A16CE06A8842D9
:103440002ED0E06C60BB201DFEF776FB78B9E06AF9
:1034500000EB8000254951F8200040B994F82C1069
:10346000012088401F49096881431E480160A06C03
:10347000E062E06AC0F10500A06194F82C10012020
:10348000884018490968084316490860E16A01EB59
:103490008101164A02EB8100211DFEF727FB012660
:1034A000304670BD0E49096888690D490968C96AC6
:1034B000C1F105010A4A1268916170470848006825
:1034C00030B10749096801F14C00C96C491C016021
:1034D0000348006870470000C4000020E40000209A
:1034E000B0000020C800002090020020DC01002075
:1034F00068020020D4000020D8000020CC0000206A
:103500002DE9F04104460D4616461F464FF00008CF
:1035100065602461B5420CD8F01BA169884202D3D2
:103520004FF0010811E0211DF9480068FEF7EAFAA2
:103530000BE0BE4204D2BD4202D34FF0010804E0CA
:10354000211DF4480068FEF7DDFA4046BDE8F08131
:103550002DE9FE4305460C4616461F46DDF8288039
:103560004FF00009EC48006810B3009401960295F2
:10357000062C15DAFFF7F4FE022808D10023424694
:103580006946E5480068FEF7E3FB814610E000234A
:103590001A466946E0480068FEF7DAFB814607E014
:1035A00000233A466946DC480068FEF7D1FD8146B3
:1035B0004846BDE8FE832DE9F8432BE0D548006876
:1035C000C0680568D3480068C068C468201DFEF75D
:1035D000B3FA2046616A8847E06901281AD1A069D8
:1035E0004619AE4207D966602461211DC9480068AA
:1035F000FEF788FA0EE0002003462A4601460090B6
:103600002046FFF7A5FF07461FB9FCF783FE00BF62
:10361000FEE700BFBF480068006808B9012000E06D
:1036200000200028CAD0BB48D0F80080B848006805
:10363000B8490860B648C0F80080BDE8F88370B5A6
:103640000446FFF748FC0546B4480068854204D2AA
:10365000FFF7B1FF0120206001E000202060AF48AB
:103660000560284670BD70B586B05DE003980028FF
:103670005ADB059C606908B9012000E0002010B900
:10368000201DFEF759FA02A8FFF7D9FF0546039857
:103690000A2847D2DFE800F00905072B2D4206086B
:1036A0002C2E00BF00BF00BF00BF0498A269811884
:1036B00003462A462046FFF723FF012816D120465D
:1036C000616A8847E069012810D1002000900498C1
:1036D000A1694218002319462046FFF739FF064624
:1036E0001EB9FCF717FE00BFFEE700BF1BE000BFDE
:1036F00019E000BF0498A061A06908B1012000E0B2
:10370000002018B9FCF706FE00BFFEE7A0694119CA
:103710002B462A462046FFF7F3FE04E0204600F041
:103720008EFA00E000BF00BF00231A4603A97A48C2
:103730000068FEF718FC002898D106B070BDF8B5F7
:1037400005460F4673480068C068C468201DFEF730
:10375000F3F9E069012817D1A06941192B463A46CF
:103760002046FFF7CDFE01280ED1002003462A4651
:10377000014600902046FFF7EBFE06461EB9FCF717
:10378000C9FD00BFFEE700BF2046616A8847F8BD5B
:10379000F8B504460E46FFF7E5F86846FFF74FFF19
:1037A00005460098A0B946B9AC4206D8FFF72EF8F6
:1037B00029462046FFF7C3FF0CE0611B564800680E
:1037C000FEF71BFEFFF722F820B900F04EF901E0EA
:1037D000FFF71CF8F8BD01464E4A126812680AB994
:1037E000012200E000220A600A6822B9494A1268F0
:1037F000D268106800E00020704708B500BF684636
:10380000FFF7E9FF044620460099FFF7C1FFFFF7E5
:103810002AFFF4E710B500F032F93F48006808BB12
:103820003F48FEF753F93F48FEF750F93C48394905
:1038300008603C483649086000220C210A20FEF747
:10384000CBF9354908600846006818B9FCF762FDF5
:1038500000BFFEE73048006820B133A12E48006861
:10386000FEF7B8FD00F02AF910BD1FB50024FFF7E0
:10387000D1FF2948006868B100200223CDE900305B
:10388000029003464FF4827229A103902A48FEF762
:1038900040FE04461CB9FCF73DFD00BFFEE7204694
:1038A00004B010BD2DE9F04706460D461746984670
:1038B000DDF820900DB9002410E02C2000F06DF907
:1038C00004465CB1FFF7A6FF2660A561E761C4F876
:1038D0002080C4F82490201DFEF705F90DB10120C9
:1038E00000E0002018B9FCF715FD00BFFEE72046F8
:1038F000BDE8F08701460A461068704770B5044677
:10390000264600F0BCF87069C0B9012017E000003D
:10391000EC000020E8000020F0000020F40000206F
:10392000A4020020B8020020546D72510000000073
:10393000546D722053766300FB370008002080F03E
:10394000010500F0BBF8284670BD01460A46106A22
:10395000704700007F480068401C08B9012000E063
:10396000002018B9FCF7D6FC00BFFEE7FCF7D2FC3C
:1039700000BFFEE7001F4FF080730360001F01606F
:10398000001F754B036014380260001F6FF00203C4
:10399000036020387047714800684FF47A71B0FBBB
:1039A000F1F0401E4FF0E0214861072008617047A8
:1039B0001CB56B48014609780191FF210246117040
:1039C0000146097800919DF8001001F05001654A08
:1039D00011700721644A116009E063490968491EB2
:1039E000614A11609DF800104906090E00919DF88A
:1039F000001001F080018029EFD05B4909680902BD
:103A0000594A11601146098801F4E0611160544A75
:103A1000019911705548006840F4700053490860DE
:103A20000846006840F070400860FFF7B4FF0020CF
:103A300048490860FCF738FC4D48006840F04040B9
:103A40004B490860FCF720FC00201CBD10B5414824
:103A50000068B0F57A7F01D1012000E0002018B99C
:103A6000FCF758FC00BFFEE710BD4FF080503F4907
:103A70001C390860BFF34F8FBFF36F8F704710B5CD
:103A8000FCF748FC33480068401C32490860BFF32B
:103A90004F8FBFF36F8F0846006801280DD1334860
:103AA0001C38006800F01F0008B9012000E0002069
:103AB00018B9FCF72FFC00BFFEE710BD10B5254874
:103AC000006818B9FCF726FC00BFFEE72148006833
:103AD000401E204908600846006810B90020FCF725
:103AE00020FC10BD10B5FCF715FCFEF707FE20B159
:103AF0004FF080501D491C3908600020FCF711FC74
:103B000010BD70B5FCF710FC0546102D0FD305F164
:103B1000E02090F8F04313480078844201DB012054
:103B200000E0002018B9FCF7F5FB00BFFEE70F48E6
:103B30001438006800F4E0600B490968884201D835
:103B4000012000E0002018B9FCF7E4FB00BFFEE70D
:103B500070BD0000F800002055390008000000206A
:103B600000E400E0FC0000200001002020ED00E067
:103B700034EF00E0424A22F00700424A106000227F
:103B8000404B5A60404A414B5A6000221A6001463D
:103B90003D4A4A601A460A6070472DE9F0410446E2
:103BA0004FF00008FEF7DEFE3948006820B9FFF745
:103BB000E1FF01203649086044B1083404F00700F1
:103BC00020B104F00700C0F108000444002C31D0FB
:103BD0002D4884422ED22B4F3846056801E02F46EF
:103BE0002D686868A04202D228680028F7D12748CB
:103BF00085421FD0386800F1080828683860686876
:103C0000001B102810D92E196868001B70606C60AA
:103C100071681C4800E00068026852688A42FAD362
:103C200002683260066000BF1A4968680968081AAD
:103C300018490860FEF7EAFD4046BDE8F08170B51E
:103C400006463546B6B1083D2C46FEF78BFE616848
:103C50000C4800E00068026852688A42FAD30268A1
:103C6000226004600B4960680968084409490860DB
:103C7000FEF7CCFD70BD0748006870477047000034
:103C8000D402002004010020F82B01000C010020C8
:103C9000180100201401002032490143324A11600A
:103CA000704770B5002100230F22C4781CB32E4C3E
:103CB000246804F4E064C4F5E064C4F30721C1F1AE
:103CC0000404E3B20A4144789C40E1B28478144091
:103CD00021430C07210E254C05786155047804F02A
:103CE0001F050124AC4005786D11AD0005F1E025FC
:103CF000C5F8004109E0047804F01F050124AC4038
:103D00001B4D0678761145F8264070BD194A0A40C9
:103D10000243154B1B1F1A60704739B1124A121D1E
:103D200012680243104B1B1D1A6006E00E4A121D5A
:103D3000126882430C4B1B1D1A607047042808D17F
:103D40004FF0E021096941F004014FF0E0221161D8
:103D500007E04FF0E021096921F004014FF0E02273
:103D6000116170470000FA050CED00E000E400E08E
:103D700080E100E080FFFF1F002041490860091D2D
:103D80000860091D0860091D08603E483C4914315F
:103D90000860704700213A498279002A3AD00A46E1
:103DA000126803689A430B461A600A1D126803687A
:103DB0009A430B1D1A60027911440A6803681A437A
:103DC0000A602F4A0832126803689A432C4B083362
:103DD0001A601A1D126803689A43294B0C331A6043
:103DE0004279102A0ED11A1F126803681A43244B15
:103DF00008331A601A1D126803681A43204B0C33EB
:103E00001A600DE01E49427911440A6803681A439A
:103E10000A6005E0027911440A6803689A430A605F
:103E200070470021016001710C21417100218171F5
:103E300070471349103109680143114A103211606B
:103E40007047014600200E4A143212680A400AB137
:103E5000012000E0002070470949143108607047D4
:103E600001460020064A143212680A400AB10120B5
:103E700000E00020704702491431086070470000DC
:103E8000003C0140FFFF7F0010B504469848844283
:103E900008D10121084600F0B2FD0021012000F008
:103EA000AEFD76E09348844208D10121022000F063
:103EB000A6FD0021022000F0A2FD6AE08E488442A7
:103EC00008D10121042000F09AFD0021042000F017
:103ED00096FD5EE08948844208D10121082000F067
:103EE0008EFD0021082000F08AFD52E084488442C3
:103EF00008D10121102000F082FD0021102000F0E7
:103F00007EFD46E07F48844208D10121202000F058
:103F100076FD0021202000F072FD3AE07A488442CC
:103F200008D10121402000F06AFD0021402000F06E
:103F300066FD2EE07548844208D10121802000F002
:103F40005EFD0021802000F05AFD22E0704884428E
:103F500008D10121801500F052FD0021A01500F0CC
:103F60004EFD16E06B48844208D10121401500F057
:103F700046FD0021601500F042FD0AE066488442DB
:103F800007D10121001500F03AFD0021201500F0B5
:103F900036FD10BDF0B50A4600210023002400BF05
:103FA0003DE0012505FA01F3156805EA03049C428A
:103FB00034D105684F000326BE40B543056015792E
:103FC0004E00B5400668354305601579012D02D0D5
:103FD0001579022D16D185684F000326BE40B543E2
:103FE000856055794E00B5408668354385604568E3
:103FF00001268E40B5434560456896798E40B6B23D
:1040000035434560C5684F000326BE40B543C560D3
:10401000D5794E00B540C6683543C560491C1029A6
:10402000BFD3F0BD4FF6FF710160002101714171F6
:104030008171C171704708B54FF480320092009AC7
:104040000A430092009AC261C161009AC261C269CA
:104050000092C269009208BD0246002013690B401D
:104060000BB1012000E0002070470146086980B2D2
:1040700070470246002053690B400BB1012000E05D
:10408000002070470146486980B27047018370473D
:10409000418370470AB1018300E041837047416169
:1040A000704742694A4042617047F0B500230024DE
:1040B0004D07ED0E02FA05F3CE1000F1200555F87C
:1040C00026504E07F70E0F26BE40B543CF1000F125
:1040D000200646F82750CE1000F1200555F826504E
:1040E00045EA0304CE1000F1200545F82640F0BD56
:1040F000000002400004024000080240000C0240A0
:10410000001002400014024000180240001C02404F
:1041100000200240002402400028024010B504465E
:10412000F848844209D10121480500F09BFC002198
:104130004FF4001000F096FC18E0F348844209D1D7
:104140000121880500F08EFC00214FF4800000F072
:1041500089FC0BE0ED48844208D10121C80500F03C
:1041600081FC00214FF4000000F07CFC10BD2DE923
:10417000FF4704460D460026B1460427DFF890832A
:10418000A6884FF6C0700640684600F0FCFADDF8DD
:104190000880E048B8FBF0F01FFA80F946EA09060B
:1041A000A68020884FF6FE71084020800026DA495C
:1041B000286888420CD828684000B8FBF0F087B225
:1041C000042F00DA04273E4309F10100208427E090
:1041D000E8884BF6FF71884206D1286800EB400062
:1041E000B8FBF0F087B209E0286800EBC00101EBF2
:1041F0000010B8FBF0F087B247F48047C7F30B001C
:1042000008B947F0010747F4004006434FF49670A1
:1042100009FB00F04FF47A7190FBF1F0401C208410
:10422000A683208840F00100208026884FF6F530D4
:104230000640A8886989084306432680A8892989F9
:1042400008432081BDE8FF8741F2883101600021E9
:1042500081804BF6FF71C1800021018141814FF4C3
:1042600080418181704721B1028842F001020280C1
:1042700004E002884FF6FE731A400280704729B1AD
:10428000828C4FF6EF731A40828403E0828C42F0F6
:104290001002828470470A460021818C4FF6F07329
:1042A000194002F00F0319438184704721B102883D
:1042B00042F48072028004E002884FF6FF631A40E5
:1042C0000280704721B1028842F40072028004E04B
:1042D00002884FF6FF531A400280704712B141F036
:1042E000010101E001F0FE010182704721B1028865
:1042F00042F48062028004E002884FF6FF331A40E5
:10430000028070470A46002181894FF601731940E7
:1043100002F0FE0319438181704721B1828942F086
:104320000102828104E082894FF6FE731A40828185
:10433000704721B1028842F04002028004E0028806
:104340004FF6BF731A400280704721B1028842F4D1
:104350000042028003E00288C2F30E02028070472E
:1043600021B9028842F08002028004E002884FF600
:104370007F731A4002807047B1F5804F05D0828B61
:104380004BF6FF731A40828303E0828B42F4804233
:1043900082837047B1F5006F04D1028842F4006255
:1043A000028004E002884FF2FF731A4002807047D7
:1043B000B1F5005F04D1028842F40052028004E0AB
:1043C00002884DF6FF731A400280704721B10288BF
:1043D00042F01002028004E002884FF6EF731A40A8
:1043E00002807047018270470146088AC0B2704758
:1043F00021B1028842F48052028004E002884EF625
:10440000FF731A4002807047B1F5006F04D1028833
:1044100042F40062028004E002884FF2FF731A4007
:104420000280704721B1028842F02002028004E03D
:1044300002884FF6DF731A40028070470146088BEE
:104440000012704721B1828842F40062828004E049
:1044500082884FF2FF731A408280704721B18288B0
:1044600042F48052828004E082884EF6FF731A4044
:104470008280704708B502460020009000920098A4
:10448000084400900098008808BD1AB183880B4347
:10449000838002E083888B438380704770B5024637
:1044A0000024002500230020958A138B1B0445EA75
:1044B000030626F07F4404EA01068E4201D1012062
:1044C00000E0002070BD10B501460020002300224E
:1044D0008B8A0A8B120443EA020424F07F4010BD49
:1044E0000CB50246002000230193009300920B0FAD
:1044F000019321F07F41019B83B1009B1433009312
:1045000010E000000054004000580040005C0040F3
:1045100000127A0040420F00A0860100090C009BA7
:1045200018330093009B1B680B400BB1012000E087
:1045300000200CBD002221F07F42D34383827047CC
:1045400030B5024600200023948801F0E06504EABB
:10455000154321F07F41948A0C4014B10BB1012026
:1045600000E0002030BD002221F07F42D34383824F
:1045700070470000F948006840F00100F749086002
:104580000020F64908310860F4480068F449084002
:10459000F2490860F348091D0860F348EF49843187
:1045A0000860F0481038091D0860EC48006820F4E5
:1045B0008020EA4908600020E8490C310860E7499A
:1045C0008C31086070470021E44A921C117011463A
:1045D0000870704710B501460022002300204A11E0
:1045E000012A02D1DD4C236808E0022A03D1DB4C0A
:1045F0007034236802E0D94C7434236801F01F0240
:10460000012494401C400CB1012000E0002010BDAA
:1046100038B5002000900024002500BF3120FFF7AE
:10462000D9FF05460098401C00900098B0F5A04FB7
:1046300001D0002DF2D03120FFF7CCFF08B10124CA
:1046400000E00024204638BD01460020C34A10681F
:1046500020F0F80040EAC10010607047C3490860CC
:1046600070470021BD4A703211701170012802D0CC
:1046700004280AD104E00121B84A7032117005E023
:104680000521B64A7032117000E000BF00BF7047CC
:10469000B7490860704770B5049C41EA821501264D
:1046A000C6EB530645EA0645054345EA0465AB4EAD
:1046B000361D356070BDAD4908667047820142EA1B
:1046C0000172A64B84331A607047A8498866704708
:1046D00010B5830143EA016343EA02739F4C8834B7
:1046E000236010BDA14908677047A049C86470479E
:1046F00002460020994B0833186820F0EC6042EA2B
:1047000001031843954B0833186070470246002098
:10471000924B0833186820F0784042EA01031843AE
:104720008E4B083318607047014600208B4A0832D0
:10473000106820F003000843106070478748083075
:10474000006800F00C00704701460020834A0832E0
:10475000106820F0F0000843106070470146002008
:104760007E4A0832106820F4E05008431060704719
:1047700001460020794A0832106820F4604040EA7F
:10478000C10010607047F0B500210022002402250E
:1047900000260223714F08373F6807F00C0121B152
:1047A000042905D0082937D105E0724F076036E0AB
:1047B000714F076033E0694F3F1D3F68C7F3805674
:1047C000664F3F1D3F6807F03F036EB16A4FB7FB6E
:1047D000F3F7DFF888C10CF1040CDCF800C0CCF36F
:1047E000881C07FB0CF40CE0624FB7FBF3F7DFF813
:1047F0006CC10CF1040CDCF800C0CCF3881C07FB86
:104800000CF4564F3F1D3F68C7F301477F1C7D00E6
:10481000B4FBF5F7076002E0564F076000BF00BF2A
:104820004E4F08373F6807F0F0010909534F7A5C93
:104830000768D7404760494F08373F6807F4E051A1
:10484000890A4E4F7A5C4768D7408760434F0837E4
:104850003F6807F46041490B484F7A5C4768D7408E
:10486000C760F0BD002100F44072B2F5407F0AD16C
:104870003A4A0832116821F4F811414A02401143C2
:10488000364A08321160354A70321268C0F30B03A1
:104890001A43324B70331A60704735494439086007
:1048A000704733494039086070473649086070479F
:1048B00001460020294A8C32106820F01F004A1E51
:1048C0001043264A8C321060704701460020234A6C
:1048D0008C32106820F4F8504A1E40EA02201F4A29
:1048E0008C3210607047014600201C4A8C321068E0
:1048F00020F4401008431060704701460020174A1A
:104900008C32106820F44000084310607047014664
:104910000020124A8C32106820F4403008431060A6
:10492000704719490860704739B10C4A3032126833
:1049300002430A4B30331A6006E0084A30321268EC
:104940008243064B30331A607047F9B1034A343260
:1049500012680243014B34331A601CE000380240F5
:10496000FFFFF6EA1030002400300020000047422C
:10497000800E47420024F40000127A001C0100203F
:10498000FFFCFF0F5C014742E0114742854A126875
:104990008243844B1A60704739B1824A121D1268F3
:1049A0000243804B1B1D1A6006E07E4A121D1268EE
:1049B00082437C4B1B1D1A60704739B1794A0C3217
:1049C00012680243774B0C331A6006E0754A0C32CA
:1049D00012688243734B0C331A60704739B1714AC5
:1049E0001032126802436F4B10331A6006E06D4AB2
:1049F0001032126882436B4B10331A60704739B122
:104A0000684A243A12680243664B243B1A6006E067
:104A1000644A243A12688243624B243B1A6070470E
:104A200039B1604A203A126802435E4B203B1A605B
:104A300006E05C4A203A126882435A4B203B1A60D7
:104A4000704739B1574A1C3A12680243554B1C3B18
:104A50001A6006E0534A1C3A12688243514B1C3BD1
:104A60001A60704739B14F4A143A126802434D4BED
:104A7000143B1A6006E04B4A143A12688243494BD1
:104A8000143B1A60704739B1464A103A1268024323
:104A9000444B103B1A6006E0424A103A12688243C7
:104AA000404B103B1A60704739B13E4A1C321268C5
:104AB00002433C4B1C331A6006E03A4A1C3212682F
:104AC0008243384B1C331A60704739B1354A203263
:104AD00012680243334B20331A6006E0314A203219
:104AE000126882432F4B20331A60704739B12D4A28
:104AF0002432126802432B4B24331A6006E0294A01
:104B0000243212688243274B24331A60704739B12C
:104B1000244A2C3212680243224B2C331A6006E0DE
:104B2000204A2C32126882431E4B2C331A60704785
:104B300039B11C4A3032126802431A4B30331A60C2
:104B400006E0184A303212688243164B30331A603E
:104B5000704739B1134A273A12780243114B273B69
:104B60001A7006E00F4A273A127882430D4B273B12
:104B70001A7070470B484030006840F08070094957
:104B800040310860704701460020064A283A126802
:104B90000A400AB1012000E000207047014926398F
:104BA000087070473438024010B50446F648844215
:104BB00008D101218014FFF766FF0021A014FFF740
:104BC00062FF3CE0F148844208D101210014FFF764
:104BD00049FF00212014FFF745FF30E0EC488442F4
:104BE00008D10121C013FFF73DFF0021E013FFF7BB
:104BF00039FF24E0E748844208D101214014FFF73F
:104C000042FF00216014FFF73EFF18E0E2488442B3
:104C100009D101210805FFF736FF00214FF480106C
:104C2000FFF731FF0BE0DD48844208D10121480540
:104C3000FFF729FF00214FF40010FFF724FF10BDFC
:104C400010B50022028802F441520B884C8823439D
:104C50008C882343CC8823430C8923434C892343EA
:104C60008C892343CC8923431A430280838B4FF2E0
:104C7000FF74234083830B8A038210BD2DE9F04F1C
:104C80000025022300240127002200269446904696
:104C90009146B0F81CA04FF2400B0AEA0B0AA0F8AC
:104CA0001CA04FF0020AA0F820A0858BD1F808A024
:104CB000BAF1020F01D100BF6CE0B1F804A0BAF163
:104CC000000F01D1012700E00227DFF8D4A2DAF8B3
:104CD00000A00AF4000ABAF1000F09D0DFF8C0A260
:104CE000DAF800A02AF4000ADFF8B4B2CBF800A08A
:104CF000DFF8ACA20AF17C0ADAF800A0CAF388183F
:104D0000DFF89CA20AF17C0ADAF800A0CAF3027963
:104D1000DFF88CA2AAF1040ADAF800A00AF03F0C2E
:104D2000DFF880A2BAFBFCFA0AFB08FABAFBF9F634
:104D3000B1F806A0BAF5007F0ED14FEA162A0AEBA9
:104D40008A0A4FEA4A0AD1F808B0BAFBFBFA0AF11C
:104D5000050A1FFA8AF20FE04FEA471AB6FBFAFA81
:104D60000AEB8A0A4FEA4A0AD1F808B0BAFBFBFA02
:104D70000AF1050A1FFA8AF24FF00A0AB2FBFAF2A8
:104D800002F00104A2EB040ACAF34F034FF6FF7AC4
:104D90000AEA0424022B01DBFF2B01DD022300249D
:104DA000B1F806A04AEA040A4AEA030AA0F820A0D9
:104DB000B1F804A0B1F80CB04AEA0B0AB1F802B09D
:104DC0004AEA0B0AB1F800B04AEA0B0A4AF4006A50
:104DD0004AEA05058583BDE8F08F00210180418006
:104DE0008180C180018141818181C181072101824E
:104DF00070470021018041808180C1800221816053
:104E000000218181704721B1028842F04002028076
:104E100004E002884FF6BF731A400280704721B148
:104E2000828B42F48062828304E0828B4FF6FF33F0
:104E30001A408283704702884FF2FF731A40028043
:104E400002880A4302807047B1F5804F04D102887E
:104E500042F48042028004E002884BF6FF731A405D
:104E6000028070474FF6FF62914204D0028842F4FC
:104E70008072028004E002884FF6FF631A400280CD
:104E8000704721B1828842F00402828004E0828867
:104E90004FF6FB731A408280704721B1828842F03E
:104EA0001002828004E082884FF6EF731A408280FD
:104EB000704730B500220023848B4FF240052C4010
:104EC000848302240484828B0C88B4F5007F01D093
:104ED0000C8814B94FF4807308E00C88B4F5407F57
:104EE00003D00C88B4F5807F00D100238C888D8995
:104EF0002C434D882C431C4344F40064224382839A
:104F000030BD0146888970478181704721B1028890
:104F100042F40052028004E002884DF6FF731A400A
:104F200002807047018841F4805101807047024639
:104F30000020012901D0108B00E0908A70470146C3
:104F4000088A70471AB183880B43838002E0838804
:104F50008B438380704730B5002400230C1101255A
:104F6000A540ABB21AB185881D43858002E08588D3
:104F70009D43858030BD0246002013890B400BB154
:104F8000012000E000207047003001400038004060
:104F9000003C0040003401400050014000540140FA
:104FA0000838024000127A00CA4302817047F0B507
:104FB0000246002000240023002501F00F070126EF
:104FC000BE40B4B20B1101269E40B3B2968806EAE9
:104FD00003051689264016B10DB1012000E000201E
:104FE000F0BD10B5002201F00F040123A3409AB2D6
:104FF000D343038110BD000010B501218803FFF7E2
:1050000042FD00214FF48040FFF73DFD10BD1C49DB
:10501000086070471B490862704730B500228B0753
:105020001C0F0F2303FA04F2154B08338C1053F8AE
:1050300024309343124C08348D1044F82530234615
:105040008C1053F824308C07240F00FA04F4234307
:105050000B4C08348D1044F8253030BD0949DC3143
:1050600008607047084908607047002004492031F3
:10507000096801F4807109B1012000E00020704747
:1050800000380140000027420004274210B50446C2
:10509000FE48844208D101210846FFF7F4FC0021B4
:1050A0000120FFF7F0FC9DE0B4F1804F08D1012111
:1050B0000846FFF7D7FC00210120FFF7D3FC91E061
:1050C000F348844208D101210220FFF7CBFC0021E4
:1050D0000220FFF7C7FC85E0EE48844208D1012199
:1050E0000420FFF7BFFC00210420FFF7BBFC79E0A0
:1050F000E948844208D101210820FFF7B3FC0021D0
:105100000820FFF7AFFC6DE0E448844208D101219C
:105110001020FFF7A7FC00211020FFF7A3FC61E09F
:10512000DF48844208D101212020FFF79BFC0021A9
:105130002020FFF797FC55E0DA48844208D101218E
:105140000220FFF7A0FC00210220FFF79CFC49E0B1
:10515000D548844209D101210804FFF794FC0021BD
:105160004FF48030FFF78FFC3CE0D048844209D1F7
:1051700001214804FFF787FC00214FF40030FFF7BE
:1051800082FC2FE0CA48844209D101218804FFF73C
:105190007AFC00214FF48020FFF775FC22E0C5481F
:1051A000844208D101214020FFF75CFC002140200F
:1051B000FFF758FC16E0C048844208D10121802046
:1051C000FFF750FC00218020FFF74CFC0AE0BB48B1
:1051D000844207D101218015FFF744FC0021A0156E
:1051E000FFF740FC10BD00220288A84B98420ED069
:1051F000AC4B98420BD0B0F1804F08D0A44B9842F2
:1052000005D0A44B984202D0A34B984204D14FF64C
:105210008F731A404B881A43A04B984207D0A04B7B
:10522000984204D04FF6FF431A400B891A4302807C
:105230004B68C3620B880385944B984202D0994B0C
:10524000984201D18B7A03860123838270474FF005
:10525000FF314160002101800181418081727047EE
:105260000185828270470A46002101884FF68F73BC
:10527000194011430180704741627047C162704715
:105280000146486A70470146088D704721B102887F
:1052900042F00202028004E002884FF6FD731A40D9
:1052A0000280704721B1028842F00402028004E0CB
:1052B00002884FF6FB731A400280704721B10288C2
:1052C00042F08002028004E002884FF67F731A40A9
:1052D0000280704702884FF6F7731A4002800288F6
:1052E0000A430280704702884FF6FF431A4002804B
:1052F00002880A430280704721B1028842F001020D
:10530000028004E002884FF6FE731A400280704764
:1053100070B5002400220023058C4FF6FE76354040
:105320000584028C8388048B4FF68F752C40B51E44
:105330002C400D882C43751E2A408D892A434D88A8
:105340002A43524DA84202D0564DA84213D14FF6DF
:10535000F7752A40CD892A434FF6FB752A408D8880
:105360002A434FF6FF652B404FF6FF552B400D8A21
:105370002B434D8A2B43838004838D6845630284CD
:1053800070BD70B5002400220023058C4FF6EF7627
:1053900035400584028C8388048B48F6FF752C40C9
:1053A0004FF6FF452C400D884FF6FF7606EA05259F
:1053B0002C434FF6DF752A408D8906EA05152A43EE
:1053C0004D8806EA05152A43304DA84202D0354DD6
:1053D000A8421DD14FF67F752A40CD894FF6FF7642
:1053E00006EA05152A434FF6BF752A408D8806EA5E
:1053F00005152A434FF6FF352B404FF2FF752B4022
:105400000D8A06EA85052B434D8A06EA85052B435E
:10541000838004838D688563028470BD70B5002429
:1054200000220023058C4FF6FF6635400584028C70
:105430008388848B4FF68F752C404FF6FC752C407B
:105440000D882C434FF6FF552A408D894FF6FF7685
:1054500006EA05252A434D8806EA05252A430B4D11
:10546000A84202D00F4DA84238D14FF2FF752A4012
:10547000CD894FF6FF7606EA05252A434FF6FF351C
:105480002A408D8806EA05252A4319E000000140DC
:105490000004004000080040000C004000100040E4
:1054A000001400400004014000400140004401405D
:1054B0000048014000180040001C0040002000404F
:1054C0004EF6FF752B404DF6FF752B400D8A06EA10
:1054D00005152B434D8A06EA05152B4383808483EB
:1054E0008D68C563028470BD70B50022002300245E
:1054F000058C4EF6FF7635400584038C8488828BBC
:1055000048F6FF752A404FF6FF452A400D884FF6B2
:10551000FF7606EA05252A434DF6FF752B408D8957
:1055200006EA05352B434D8806EA05352B43FE4D2B
:10553000A84202D0FD4DA84208D14BF6FF752C4081
:105540000D8A4FF6FF7606EA85152C438480828308
:105550008D680564038470BD0021018041808180D5
:1055600081608181C18101824182704770B50346AB
:10557000002000241846183001258D40ACB21D8C47
:10558000A5431D8409B108290AD100EB6100056813
:105590004FF68F76354005600568154305600FE0CE
:1055A0000D1FC5F34E052844056848F6FF763540C3
:1055B000056005684FF6FF7606EA0226354305606A
:1055C00070BD4163704781637047C1637047016478
:1055D00070470A460021018B4FF68F731940114323
:1055E000018370470A460021018B48F6FF7319407A
:1055F0004FF6FF7303EA02231943018370470A46FB
:105600000021818B4FF68F731940114381837047BE
:105610000A460021818B48F6FF7319404FF6FF734D
:1056200003EA02231943818370470A460021018B54
:105630004FF6F77319401143018370470A46002162
:10564000018B4FF2FF7319404FF6FF7303EA0223F9
:105650001943018370470A460021818B4FF6F77387
:1056600019401143818370470A460021818B4FF214
:10567000FF7319404FF6FF7303EA02231943818336
:1056800070470A460021018B4FF6FB731940114306
:10569000018370470A460021018B4FF6FF33194002
:1056A0004FF6FF7303EA02231943018370470A464A
:1056B0000021818B4FF6FB731940114381837047A2
:1056C0000A460021818B4FF6FF3319404FF6FF73D6
:1056D00003EA02231943818370470A460021018BA4
:1056E0004FF67F7319401143018370470A4600212A
:1056F000018BC1F30E014FF6FF7303EA0223194336
:10570000018370470A460021818B4FF67F73194051
:105710001143818370470A460021818BC1F30E013A
:105720004FF6FF7303EA02231943818370470A4649
:105730000021018C4FF6FD7319401143018470471D
:105740000A460021018C4FF6F7731940114301847A
:1057500070470A460021018C4FF6DF7319404FF65F
:10576000FF7303EA02131943018470470A460021BC
:10577000018C4FF67F7319404FF6FF7303EA021353
:105780001943018470470A460021018C4FF6FF53EC
:1057900019404FF6FF7303EA02231943018470474F
:1057A0000A460021018C4FF2FF7319404FF6FF7338
:1057B00003EA02231943018470470A460021018C41
:1057C0004DF6FF7319404FF6FF7303EA0233194396
:1057D0000184704730B5002301248C40A3B2048CAF
:1057E0009C430484048C02FA01F5ADB22C4304847A
:1057F00030BD30B5002304248C40A3B2048C9C43FC
:105800000484048C02FA01F5ADB22C43048430BD4B
:10581000828B4FF2FF331A408283828B4FF6FF73E5
:1058200003EA01231A4382837047F0B50C461546FC
:10583000002100220026078C4EF6FF7C07EA0C07A9
:105840000784818B028C4FF6FF7707EA043640F617
:10585000FF4739404FF6FF7707EA052739434FF6F0
:10586000FF7707EA0337394345F6FF773A4046F4B6
:1058700080573A4381830284F0BD828B4FF6F373E5
:105880001A408283828B0A4382837047F0B50C46AC
:105890001546002100220026078C4FF6FF6C07EA10
:1058A0000C070784818B028C4FF6FF7707EA0426EA
:1058B0004FF60C7739404FF6FF7707EA03172F436F
:1058C00039434FF2FF573A4046F480773A43818399
:1058D0000284F0BD028B4FF2FF331A400283028B29
:1058E0004FF6FF7303EA01231A4302837047F0B5B2
:1058F0000C461546002100220026078C4FF6EF7C4F
:1059000007EA0C070784018B028C4FF6FF7707EA42
:10591000041640F6FF4739404FF6FF7707EA033792
:1059200039434FF6FF7703E00000014000040140D7
:1059300007EA052739434FF65F773A4046F01007EC
:105940003A4301830284F0BD028B4FF6F3731A4091
:105950000283028B0A4302837047F0B50C4615465A
:1059600000210022068C4FF6FE773E400684018B14
:10597000028C4FF60C7631407E1C06EA03162E434D
:1059800031434FF6F576324044F00106324301834D
:105990000284F0BD70B505460C46208850B92389B5
:1059A000A28861882846FFF7D8FFE1882846FFF7DC
:1059B000CBFF25E0208804280AD12389A2886188AA
:1059C0002846FFF794FFE1882846FFF783FF17E09A
:1059D000208808280AD12389A28861882846FFF7F1
:1059E00055FFE1882846FFF748FF09E02389A28890
:1059F00061882846FFF719FFE1882846FFF708FF6E
:105A000070BD002101804180012181800021C18081
:105A1000018170472DE9F04105460C46002601271B
:105A2000608808B9022600E00026A088012801D17C
:105A3000022700E001272088A0B92389A288618875
:105A40002846FFF78AFFE1882846FFF77DFF238974
:105A50003A4631462846FFF74AFFE1882846FFF7D5
:105A600039FF13E02389A28861882846FFF73FFFAA
:105A7000E1882846FFF72EFF23893A46314628461B
:105A8000FFF76BFFE1882846FFF75EFFBDE8F08176
:105A90000146486B70470146886B70470146C86BEA
:105AA00070470146086C70470A884B881A438B88F8
:105AB0001A43CB881A430B891A434B891A438B89A3
:105AC0001A43A0F844207047002101804180818062
:105AD000C180018141818181704731B1B0F844209A
